{
  "contractName": "EasyWallet",
  "abi": [
    {
      "inputs": [],
      "stateMutability": "nonpayable",
      "type": "constructor"
    },
    {
      "anonymous": false,
      "inputs": [
        {
          "indexed": true,
          "internalType": "address",
          "name": "previousOwner",
          "type": "address"
        },
        {
          "indexed": true,
          "internalType": "address",
          "name": "newOwner",
          "type": "address"
        }
      ],
      "name": "OwnershipTransferred",
      "type": "event"
    },
    {
      "anonymous": false,
      "inputs": [
        {
          "indexed": false,
          "internalType": "address",
          "name": "account",
          "type": "address"
        }
      ],
      "name": "Paused",
      "type": "event"
    },
    {
      "inputs": [],
      "name": "kill",
      "outputs": [],
      "stateMutability": "nonpayable",
      "type": "function"
    },
    {
      "inputs": [],
      "name": "owner",
      "outputs": [
        {
          "internalType": "address",
          "name": "",
          "type": "address"
        }
      ],
      "stateMutability": "view",
      "type": "function",
      "constant": true
    },
    {
      "inputs": [],
      "name": "paused",
      "outputs": [
        {
          "internalType": "bool",
          "name": "",
          "type": "bool"
        }
      ],
      "stateMutability": "view",
      "type": "function",
      "constant": true
    },
    {
      "inputs": [],
      "name": "renounceOwnership",
      "outputs": [],
      "stateMutability": "nonpayable",
      "type": "function"
    },
    {
      "inputs": [
        {
          "internalType": "address",
          "name": "newOwner",
          "type": "address"
        }
      ],
      "name": "transferOwnership",
      "outputs": [],
      "stateMutability": "nonpayable",
      "type": "function"
    },
    {
      "inputs": [
        {
          "internalType": "bytes",
          "name": "key_",
          "type": "bytes"
        },
        {
          "internalType": "string",
          "name": "value_",
          "type": "string"
        }
      ],
      "name": "setValue",
      "outputs": [],
      "stateMutability": "nonpayable",
      "type": "function"
    },
    {
      "inputs": [
        {
          "internalType": "bytes",
          "name": "key_",
          "type": "bytes"
        }
      ],
      "name": "getValue",
      "outputs": [
        {
          "internalType": "string",
          "name": "",
          "type": "string"
        }
      ],
      "stateMutability": "view",
      "type": "function",
      "constant": true
    }
  ],
  "bytecode": "0x608060405234801561001057600080fd5b50600061002161012b60201b60201c565b9050806000806101000a81548173ffffffffffffffffffffffffffffffffffffffff021916908373ffffffffffffffffffffffffffffffffffffffff1602179055508073ffffffffffffffffffffffffffffffffffffffff16600073ffffffffffffffffffffffffffffffffffffffff167f8be0079c531659141344cd1fd0a4f28419497f9722a3daafe3b4186f6b6457e060405160405180910390a35060008060146101000a81548160ff0219169083151502179055506100e761012b60201b60201c565b6000806101000a81548173ffffffffffffffffffffffffffffffffffffffff021916908373ffffffffffffffffffffffffffffffffffffffff160217905550610133565b600033905090565b610d93806101426000396000f3fe608060405234801561001057600080fd5b506004361061007d5760003560e01c80638b490a951161005b5780638b490a95146100b45780638da5cb5b146100d0578063b6576bdf146100ee578063f2fde38b1461011e5761007d565b806341c0e1b5146100825780635c975abb1461008c578063715018a6146100aa575b600080fd5b61008a61013a565b005b6100946101d9565b6040516100a19190610ac5565b60405180910390f35b6100b26101ef565b005b6100ce60048036038101906100c991906108b9565b610342565b005b6100d8610379565b6040516100e59190610aaa565b60405180910390f35b61010860048036038101906101039190610878565b6103a2565b6040516101159190610ae0565b60405180910390f35b6101386004803603810190610133919061084f565b610452565b005b610142610614565b73ffffffffffffffffffffffffffffffffffffffff1660008054906101000a900473ffffffffffffffffffffffffffffffffffffffff1673ffffffffffffffffffffffffffffffffffffffff16146101cf576040517f08c379a00000000000000000000000000000000000000000000000000000000081526004016101c690610b42565b60405180910390fd5b6101d761061c565b565b60008060149054906101000a900460ff16905090565b6101f7610614565b73ffffffffffffffffffffffffffffffffffffffff1660008054906101000a900473ffffffffffffffffffffffffffffffffffffffff1673ffffffffffffffffffffffffffffffffffffffff1614610284576040517f08c379a000000000000000000000000000000000000000000000000000000000815260040161027b90610b42565b60405180910390fd5b600073ffffffffffffffffffffffffffffffffffffffff1660008054906101000a900473ffffffffffffffffffffffffffffffffffffffff1673ffffffffffffffffffffffffffffffffffffffff167f8be0079c531659141344cd1fd0a4f28419497f9722a3daafe3b4186f6b6457e060405160405180910390a360008060006101000a81548173ffffffffffffffffffffffffffffffffffffffff021916908373ffffffffffffffffffffffffffffffffffffffff160217905550565b806001836040516103539190610a93565b908152602001604051809103902090805190602001906103749291906106c7565b505050565b60008060009054906101000a900473ffffffffffffffffffffffffffffffffffffffff16905090565b60606001826040516103b49190610a93565b908152602001604051809103902080546103cd90610ca5565b80601f01602080910402602001604051908101604052809291908181526020018280546103f990610ca5565b80156104465780601f1061041b57610100808354040283529160200191610446565b820191906000526020600020905b81548152906001019060200180831161042957829003601f168201915b50505050509050919050565b61045a610614565b73ffffffffffffffffffffffffffffffffffffffff1660008054906101000a900473ffffffffffffffffffffffffffffffffffffffff1673ffffffffffffffffffffffffffffffffffffffff16146104e7576040517f08c379a00000000000000000000000000000000000000000000000000000000081526004016104de90610b42565b60405180910390fd5b600073ffffffffffffffffffffffffffffffffffffffff168173ffffffffffffffffffffffffffffffffffffffff161415610557576040517f08c379a000000000000000000000000000000000000000000000000000000000815260040161054e90610b02565b60405180910390fd5b8073ffffffffffffffffffffffffffffffffffffffff1660008054906101000a900473ffffffffffffffffffffffffffffffffffffffff1673ffffffffffffffffffffffffffffffffffffffff167f8be0079c531659141344cd1fd0a4f28419497f9722a3daafe3b4186f6b6457e060405160405180910390a3806000806101000a81548173ffffffffffffffffffffffffffffffffffffffff021916908373ffffffffffffffffffffffffffffffffffffffff16021790555050565b600033905090565b600060149054906101000a900460ff161561066c576040517f08c379a000000000000000000000000000000000000000000000000000000000815260040161066390610b22565b60405180910390fd5b6001600060146101000a81548160ff0219169083151502179055507f62e78cea01bee320cd4e420270b5ea74000d11b0c9f74754ebdbfc544b05a2586106b0610614565b6040516106bd9190610aaa565b60405180910390a1565b8280546106d390610ca5565b90600052602060002090601f0160209004810192826106f5576000855561073c565b82601f1061070e57805160ff191683800117855561073c565b8280016001018555821561073c579182015b8281111561073b578251825591602001919060010190610720565b5b509050610749919061074d565b5090565b5b8082111561076657600081600090555060010161074e565b5090565b600061077d61077884610b93565b610b62565b90508281526020810184848401111561079557600080fd5b6107a0848285610c63565b509392505050565b60006107bb6107b684610bc3565b610b62565b9050828152602081018484840111156107d357600080fd5b6107de848285610c63565b509392505050565b6000813590506107f581610d46565b92915050565b600082601f83011261080c57600080fd5b813561081c84826020860161076a565b91505092915050565b600082601f83011261083657600080fd5b81356108468482602086016107a8565b91505092915050565b60006020828403121561086157600080fd5b600061086f848285016107e6565b91505092915050565b60006020828403121561088a57600080fd5b600082013567ffffffffffffffff8111156108a457600080fd5b6108b0848285016107fb565b91505092915050565b600080604083850312156108cc57600080fd5b600083013567ffffffffffffffff8111156108e657600080fd5b6108f2858286016107fb565b925050602083013567ffffffffffffffff81111561090f57600080fd5b61091b85828601610825565b9150509250929050565b61092e81610c25565b82525050565b61093d81610c37565b82525050565b600061094e82610bf3565b6109588185610c09565b9350610968818560208601610c72565b80840191505092915050565b600061097f82610bfe565b6109898185610c14565b9350610999818560208601610c72565b6109a281610d35565b840191505092915050565b60006109ba602683610c14565b91507f4f776e61626c653a206e6577206f776e657220697320746865207a65726f206160008301527f64647265737300000000000000000000000000000000000000000000000000006020830152604082019050919050565b6000610a20601083610c14565b91507f5061757361626c653a20706175736564000000000000000000000000000000006000830152602082019050919050565b6000610a60602083610c14565b91507f4f776e61626c653a2063616c6c6572206973206e6f7420746865206f776e65726000830152602082019050919050565b6000610a9f8284610943565b915081905092915050565b6000602082019050610abf6000830184610925565b92915050565b6000602082019050610ada6000830184610934565b92915050565b60006020820190508181036000830152610afa8184610974565b905092915050565b60006020820190508181036000830152610b1b816109ad565b9050919050565b60006020820190508181036000830152610b3b81610a13565b9050919050565b60006020820190508181036000830152610b5b81610a53565b9050919050565b6000604051905081810181811067ffffffffffffffff82111715610b8957610b88610d06565b5b8060405250919050565b600067ffffffffffffffff821115610bae57610bad610d06565b5b601f19601f8301169050602081019050919050565b600067ffffffffffffffff821115610bde57610bdd610d06565b5b601f19601f8301169050602081019050919050565b600081519050919050565b600081519050919050565b600081905092915050565b600082825260208201905092915050565b6000610c3082610c43565b9050919050565b60008115159050919050565b600073ffffffffffffffffffffffffffffffffffffffff82169050919050565b82818337600083830152505050565b60005b83811015610c90578082015181840152602081019050610c75565b83811115610c9f576000848401525b50505050565b60006002820490506001821680610cbd57607f821691505b60208210811415610cd157610cd0610cd7565b5b50919050565b7f4e487b7100000000000000000000000000000000000000000000000000000000600052602260045260246000fd5b7f4e487b7100000000000000000000000000000000000000000000000000000000600052604160045260246000fd5b6000601f19601f8301169050919050565b610d4f81610c25565b8114610d5a57600080fd5b5056fea264697066735822122026bc09d10f8cfc1b965d38d0816550368649bbe034c5f9e6dc70f8012b2b2b6164736f6c63430008000033",
  "immutableReferences": {},
  "source": "// SPDX-License-Identifier: UNLICENSED\n\npragma solidity ^0.8.0;\n\nimport \"./Pausable.sol\";\n\ncontract EasyWallet is Pausable {\n\n    mapping (bytes => string) private _values;\n\n    constructor() {\n        _owner = _msgSender();\n    }\n\n    function setValue(bytes memory key_, string memory value_) public {\n        _values[key_] = value_;\n    }\n\n    function getValue(bytes memory key_) public view returns (string memory) {\n        return _values[key_];\n    }\n}\n",
  "sourcePath": "/Users/mac/Work2/ethereum/simple/simple-wallet/contracts/EasyWallet.sol",
  "compiler": {
    "name": "solc",
    "version": "0.8.0+commit.c7dfd78e.Emscripten.clang"
  },
  "schemaVersion": "3.3.4",
  "updatedAt": "2021-04-03T19:33:12.385Z",
  "networkType": "ethereum",
  "devdoc": {
    "kind": "dev",
    "methods": {},
    "version": 1
  },
  "userdoc": {
    "kind": "user",
    "methods": {},
    "version": 1
  }
}